:10103E0030003031323334353637383930003020E5
:06104E0030302E303000AE
:100AF100C180C101C102C1038111008112008113B2
:100B010000811000811400811500830330300094AE
:100B110020000000000000000000000000000000B4
:0C0B2100000000000081000082010000C4
:100F1700D2AF7F017E0012070A120F571210AA12D2
:100F270008D2120D8F120EC912102812117D80EFF0
:100D8F00787174AAF23000307868E2702BC2007B61
:100D9F00FE7A007969120BE5786FE2FF7871E26FE6
:100DAF0060167813E2FF64026008EF6403600312B9
:080DBF000C53786FE27871F229
:010DC7002209
:100EC9007813E26401702030021D7810E204F212F6
:100ED9000D517810E2C3940A748094804009781304
:080EE9007402F2E47810F22219
:101028007813E26402700C3002091211AD12064AFC
:06103800121096C2022214
:0B117D007813E26403700312116F226C
:100D510078717C007DFE7BFF7A10794A7E007F02EC
:100D61001200DE300327C2AF1210547815E275F07D
:100D710002A42420F9E4FA7BFE120E71D2AF781599
:0D0D8100E2901040937871F27815E204F2D0
:010D8E002242
:100CBF00E4FBEBD3940974809480503DEB25E02442
:100CCF0020F87E0008E2540FFF7C007D6412017E45
:100CDF007D1012019074062BF8EFF2EB25E0242023
:100CEF00F9E3FE09E37804CEA2E713CE13D8F8FF99
:090CFF0074162BF8EFF20B80B91A
:010D080022C8
:040A72007874EFF2B3
:100A7600087C007DFE7BFF7A10794C7E007F081291
:100A860000DE120CBF7814E2901040937875F218CD
:100A9600E2FF2416F8E2FE75F06484E5F075F00ACC
:100AA60084937877F2EE75F00A84E5F09308F27491
:100AB600062FF8E2FF75F06484E5F075F00A84937A
:100AC600787AF2EF75F00A84E5F09308F27F011266
:100AD6000FFA7BFF7A10793EE4FDFF120E3A7BFE99
:0B0AE6007A007975E4FD7F01020E3AF2
:100578007873EFF27813E270667873E2FFC3943011
:100588004006EFD394394057EF642670051207AE42
:10059800804D7873E26428700512084080417873B2
:1005A800E264257005120FAC80357873E264277019
:1005B80005120F9080297873E2640D70117868E253
:1005C80070051211938018D2041210F780117873F5
:1005D800E2641B700AD2041210F778137401F278DF
:1005E80013E26402701F7873E2B43119781374034C
:1005F800F208E2FF120A727814E2D3940974809424
:10060800804002E4F27813E2640370357873E2B450
:1006180031197814E2FF120A727814E204F2E2C384
:10062800940A748094804019E4F2227873E2B43218
:1006380010E47815F2781304F2E408F27F01120F3F
:02064800FA2294
:04070A00AB07AA0689
:10070E00787112034C000E1000AE02AF03E4FCFD34
:10071E007871E2FB08E2F908E2FA08E2CBF812027D
:10072E0010E47BE87A03F9F812029B787112034009
:10073E007871E2FB08E2F908E2FA08E2CBF8C3E4CA
:10074E009BFFE49AFE740199FDE498FC7871120304
:10075E00407871E2FC08E2FD08E2FE08E2240CFF9C
:10076E00E43EFEE43DFDE43CFC78711203407871FA
:10077E00E2FC08E2FD08E2FE08E2FF780812032D13
:10078E007811EFF27871080808E27812F25389F0C6
:0F079E0043890118E2F58C08E2F58AD2A9D28CC2
:0107AD002229
:03000B00020B7075
:100B7000C0E0C0F0C083C082C0D075D000C000C04B
:0D0B800001C002C003C004C005C006C007CC
:100B8D007811E2F58C08E2F58A1203BA7800E204D6
:100B9D00F2E2C394C8748094804004E4F2D20078E9
:100BAD0002E22401F218E23400F2C308E294E818DC
:0D0BBD00E294034008E4F208F2D202D203F1
:100BCA00D007D006D005D004D003D002D001D0007F
:0B0BDA00D0D0D082D083D0F0D0E03229
:030000000209638F
:0C096300787FE4F6D8FD7581210209AA16
:030B2D008134FE12
:10109600C290D291D292D293C2947834E2F444FEB2
:0410A600F2F58022BD
:0E116F00C290D291D292D293C2947580FF2288
:10113F00313233263435362537383928301B0D27D1
:100B300090560101010101010101010101010101C1
:100B400001019035010101010101010101010101D2
:100B5000010101018145009046FFFFFFFFFFFFFFFC
:090B6000FFFFFFFFFFFFFFFFFF95
:1008D200E47871F27871E2C39404748094804003E6
:1008E200020962E408F27872E2C39404748094808C
:1008F2005066E2FF18E2FE25E025E024562FF8E2DA
:10090200FDEE25E025E024352FF8E2FF6D6042EF91
:1009120060237872E2FF18E225E025E0243FF582A9
:10092200E43411F583E5822FF582E43583F583E41F
:1009320093FF1205787872E2FF18E2FE25E025E0C7
:1009420024562FF8E2FDEE25E025E024352FF8EDC0
:10095200F27872E204F2808E7871E204F20208D632
:010962002272
:1003BA007845E2FF25E025E02446F8E225E0FEA2A2
:1003CA00A4E4334EFEEF25E025E02446F8EEF27869
:1003DA0045E2FF25E025E02447F8E225E0FEA2A554
:1003EA00E4334EFEEF25E025E02447F8EEF27845A7
:1003FA00E2FF25E025E02448F8E225E0FEA2A6E493
:10040A00334EFEEF25E025E02448F8EEF27845E287
:10041A00FF25E025E02449F8E225E0FEA2A7E4331F
:10042A004EFEEF25E025E02449F8EEF2E4FFEFC3A3
:10043A0094047480948050387845E2FE25E025E0E3
:10044A0024462FF8E2540FFD7C00700DEE25E025BE
:10045A00E024562FF8E4F28014ED640F4C700E7805
:10046A0045E225E025E024562FF87401F20F80BEFC
:10047A007845E204F2E25403F214600F1460111496
:10048A00601324037013D2A0C2A322D2A3C2A22251
:09049A00D2A2C2A122D2A1C2A08B
:0104A3002236
:0B1188000000000000000000DFF62265
:100F7400C2AFC2B27F32121188D2B27F0612118878
:0B0F8400A2B2920630B2FDD2AFA2066E
:010F8F00223F
:020EF100AE074A
:100EF300C2AF7D01ED601AC2B200005E7004C2B2DF
:100F03008002D2B27F06121188D2B2ED25E0FD80B5
:030F1300E3D2AF77
:010F160022B8
:100E9F00C2AF7D01ED601EC2B20000D2B2000020D1
:100EAF00B205F45EFE8003EE4DFE7F06121188ED53
:090EBF0025E0FD80DFD2AFAF0693
:010EC8002207
:10105400120F74920520050A7FCC120EF17F441200
:051064000EF1A205B32E
:011069002264
:100E7100120F7492052005227FCC120EF17FBE1253
:100E81000EF1120E9FAC07120E9FEFFEAD047C0017
:0D0E9100E42DFFEC3E8FF01201F1A205B33D
:010E9E002231
:080003002022042923595005B5
:100FC8007E01EE60135F6004D2B48002C2B4D2B571
:0A0FD800C2B5EE25E0FE80EAD2B4B7
:010FE20022EC
:100FE300E4FF7E01EE600F30B4024FFFD2B5C2B50D
:060FF300EE25E0FE80EE99
:010FF90022D5
:1010BE00D297EF25E04480FF120FC8AF05120FC87C
:0310CE00C29722A4
:10112E00D297EF25E04481FF120FC8120FE3C2974A
:01113E00228E
:0A0DC800787CEBF208EAF208E9F289
:100DD200D2977FBE120FC8E4FDEDC39408748094CD
:100DE200805019787CE2FB08E2FA08E2F98D8275FC
:0E0DF200830012011DFF120FC80D80DDC29795
:010E000022CF
:0A0E0100787DEBF208EAF208E9F24E
:100E0B00D2977FBF120FC8E4FDEDC3940874809492
:100E1B00805019120FE3787DE2FB08E2FA08E2F941
:0E0E2B008D82758300EF12015C0D80DDC29791
:010E39002296
:0A0BE5007872EBF208EAF208E9F278
:100BEF007BFE7A007975120E01787BE22400FFE418
:100BFF003420F97872E2FB08E2FA08E2C98FF012AA
:100C0F0001F17879E2FF7872E2FB08E2FA08E2F983
:100C1F00900002EF12015C7878E290000312015C01
:100C2F007877E290000412015C7876E2900005126A
:100C3F00015C7875E290000612015C787AE2900010
:040C4F000702015C3B
:100D0900E4787BF21201C618F290000712011D78EF
:100D190079F290000212011D7878F2900003120115
:100D29001D7877F290000412011D7876F290000583
:100D390012011D7875F290000612011D7874F27B7C
:080D4900FE7A007974020DC866
:100F5700C297C2B5E4FF12112E7871EFF2E4FD7F5C
:0D0F6700071210BE7BFF7A007903020D090E
:10114F00D2947866E580F2A2909207A2919208223B
:10115F00A2079290A20892917866E2F580C294223B
:10110A007580FFC290D291D295AF80C295EF20E749
:01111A00F6DE
:01111B0022B1
:100FFA00AE0712114F12110AC290C291AF068F802A
:07100A00D295C29502115FAF
:10101100AE0712114F12110AD290C291AF068F8002
:07102100D295C29502115F98
:0511AD007F01020FFAB2
:0511B2007F0F020FFA9F
:0511B7007F0C020FFA9D
:10111C00ED7004AC078004EF2440FCEC4480FF022B
:02112C000FFAB8
:100E3A00787FEBF208EAF208E9F212111C787FE2F5
:100E4A00FB08E2FA08E2F9120104601A787FE2FB71
:100E5A000808E2F92401F218E2FA3400F212010455
:070E6A00FF12101180D722D6
:08119E0012111CAF0302101135
:1010AA007F38120FFA7F0C120FFA7F06120FFA7F9F
:0410BA0001020FFA26
:0311BC00323000CE
:060B69008168008167AA0B
:040F3700E2FBE4FDF8
:100F3B00EBC4540F24307874F2EB540F243008F2C6
:0C0F4B00E408F27BFE7A007974020E3A92
:100C53007BFF7A1179BCE4FD7F03120E3A786908B1
:100C63007F05120F377B2DE4FD7F0712119E786BF2
:100C73007F08120F377B2DE4FD7F0A12119E786CDB
:100C8300E2FBE4FD7F0B120F3B786DE2FB7D017FFE
:100C930004120F3B7B3A7D017F0612119E786EE2B0
:100CA300FB7D017F07120F3B7B3A7D017F09121108
:0C0CB3009E786FE2FB7D017F0A020F3B80
:1009EF007868E214B40C005079900A0675F003A4ED
:1009FF00C58325F0C58373020A2A020A2E020A3420
:100A0F00020A3A020A40020A46020A4C020A52023B
:100A1F000A58020A5E020A64020A6AE4FD8026E4AA
:100A2F00FD7F06803AE4FD7F088034E4FD7F098076
:100A3F002EE4FD7F0B8028E4FD7F0C80227D017F5B
:100A4F0004801C7D017F0580167D017F0780107D4E
:100A5F00017F08800A7D017F0A80047D017F0B12D0
:030A6F00111C2235
:10106A00EF54F0C3949074809480500574102FFF4D
:06107A0022EF540FFF22DB
:1010D100EF540FC394097480948050020F22EF548F
:0310E100F0FF22FB
:10108000EF54F0D3940074809480400574F02FFFE7
:0610900022EF4490FF2254
:1010E400EF540FD394007480948040021F22EF4485
:0310F40009FF22CF
:1007AE007868E214B40C00400302083A9007C8754A
:1007BE00F003A4C58325F0C583730207EC0207F688
:1007CE0002080602080A02080E02081202081602A1
:1007DE00081A02081E020822020826020831786949
:1007EE0008E2FF12106A8008786908E2FF1210D141
:1007FE0018E4F208EFF28034786B801E786B802557
:10080E00786C8016786C801D786D800E786D8015F2
:10081E00786E8006786E800D786FE2FF12106AEFA8
:10082E00F28009786FE2FF1210D1EFF2120C530230
:02083E0009EFC0
:100840007868E214B40C0040030208CC90085A7592
:10085000F003A4C58325F0C5837302087E020888CF
:1008600002089802089C0208A00208A40208A80234
:1008700008AC0208B00208B40208B80208C37869DC
:1008800008E2FF1210808008786908E2FF1210E485
:1008900018E4F208EFF28034786B801E786B8025C4
:1008A000786C8016786C801D786D800E786D801560
:1008B000786E8006786E800D786FE2FF121080EF00
:1008C000F28009786FE2FF1210E4EFF2120C53028B
:0208D00009EF2E
:100F90007868E26016C3940C748094805005E20473
:0C0FA000F2800578687401F21209EF225B
:100FAC007868E26016D39401748094804005E21452
:0C0FBC00F280057868740CF21209EF2234
:0B11930078687402F2120FAC0211B277
:1010F700E47868F23004097BFE7A007969120D09F9
:031107000211B71B
:0711A6006572726F722100F7
:10064A007BFE7A007971120E71920420040302066D
:10065A00FA7871E2FC08E2FDAE047804CEA2E71350
:10066A00CE13D8F8FFE47873F2ED540F08F27BFE4C
:10067A007A007975AD07AC061204A4AB070B747542
:10068A002FF8742EF27873E2FE08E2FF7C007D0AEE
:10069A0012017E7D10120190EF2430FFAE030B741D
:1006AA00752EF8EFF27873E2FE08E2FF7C007D64B3
:1006BA0012017E7D101201907C007D0A120190EDDC
:1006CA002430FFAE030B74752EF8EFF2EBC39408D7
:1006DA0074809480500CAF030B74752FF87420F259
:1006EA0080EA74752BF8E4F27BFE7A00797580074C
:1006FA007BFF7A1179A6E4FD7F03120E3A021054A9
:1004A400787FEBF208EAF208E9F208ECF208EDF2E0
:1004B400E408F208F2C3EC64809480502D7882E260
:1004C400FE08E2FFC3E49FFFE49E18F208EFF2780F
:1004D4007FE2FB0808E2F92401F218E2FA3400F2A0
:1004E400742D12014A7885E204F27882E2FA08E275
:1004F400FB7C007D0AFFAE02120190AF057884E216
:10050400FE04F274862EF8EFF27C007D0AAF03AE8F
:10051400021201907882EEF208EFF2D39400EE64B6
:1005240080948050C508E2FF08E22FF27884E2FF4D
:1005340014F2EF3395E0FED3EF9400EE64809480E0
:10054400401FE22486F8E22430FF787FE2FB0808AB
:10055400E2F92401F218E2FA3400F2EF12014A80BF
:10056400CB787FE2FB08E2FA08E2F9E412014A7868
:0305740085E2FF1E
:010577002261
:10096F00020F17E493A3F8E493A34003F68001F278
:10097F0008DFF48029E493A3F85407240CC8C33389
:10098F00C4540F4420C8834004F456800146F6DF58
:10099F00E4800B0102040810204080900AF1E47EED
:1009AF00019360BCA3FF543F30E509541FFEE4934D
:1009BF00A360010ECF54C025E060A840B8E493A314
:1009CF00FAE493A3F8E493A3C8C582C8CAC583CA3F
:1009DF00F0A3C8C582C8CAC583CADFE9DEE780BEF7
:010B6F000085
:10000E00E709F608DFFA8046E709F208DFFA803ED4
:10001E0088828C83E709F0A3DFFA8032E309F608C1
:10002E00DFFA8078E309F208DFFA807088828C8329
:10003E00E309F0A3DFFA806489828A83E0A3F608DD
:10004E00DFFA805889828A83E0A3F208DFFA804CB7
:10005E0080D280FA80C680D4806980F2803380108E
:10006E0080A680EA809A80A880DA80E280CA8033F7
:10007E0089828A83ECFAE493A3C8C582C8CCC5836F
:10008E00CCF0A3C8C582C8CCC583CCDFE9DEE7803F
:10009E000D89828A83E493A3F608DFF9ECFAA9F0BE
:1000AE00EDFB2289828A83ECFAE0A3C8C582C8CC14
:1000BE00C583CCF0A3C8C582C8CCC583CCDFEADE2D
:1000CE00E880DB89828A83E493A3F208DFF980CC8F
:1000DE0088F0EF60010E4E60C388F0ED2402B40488
:1000EE000050B9F582EB2402B4040050AF2323452F
:0600FE00822390005E73F6
:10010400BB010689828A83E0225002E722BBFE02F9
:09011400E32289828A83E493222C
:10011D00BB010CE58229F582E5833AF583E0225097
:10012D0006E92582F8E622BBFE06E92582F8E222E1
:0D013D00E58229F582E5833AF583E49322FB
:10014A00BB010689828A83F0225002F722BBFE0194
:02015A00F3228E
:10015C00F8BB010DE58229F582E5833AF583E8F0D9
:10016C00225006E92582C8F622BBFE05E92582C885
:02017C00F2226D
:10017E00EF8DF0A4A8F0CF8CF0A428CE8DF0A42E95
:02018E00FE224F
:10019000C2D5EC30E709B2D5E4C39DFDE49CFCEE8A
:1001A00030E715B2D5E4C39FFFE49EFE120365C39A
:1001B000E49DFDE49CFC800312036530D507C3E495
:0601C0009FFFE49EFE22F9
:1001C600BB010A89828A83E0F5F0A3E02250068704
:1001D600F009E71922BBFE07E3F5F009E3192289C6
:0B01E600828A83E493F5F074019322F9
:1001F100BB010A89828A83F0E5F0A3F0225006F759
:0F02010009A7F01922BBFE06F3E5F009F3192255
:10021000E88FF0A4CC8BF0A42CFCE98EF0A42CFC8D
:100220008AF0EDA42CFCEA8EF0A4CDA8F08BF0A40B
:100230002DCC3825F0FDE98FF0A42CCD35F0FCEB6A
:100240008EF0A4FEA9F0EB8FF0A4CFC5F02ECD392F
:0F025000FEE43CFCEAA42DCE35F0FDE43CFC229C
:10025F0075F008758200EF2FFFEE33FECD33CDCC56
:10026F0033CCC58233C5829BED9AEC99E5829840D9
:10027F000CF582EE9BFEED9AFDEC99FC0FD5F0D6B6
:10028F00E4CEFBE4CDFAE4CCF9A88222B800C1B9E0
:10029F000059BA002DEC8BF084CFCECDFCE5F0CB1E
:1002AF00F97818EF2FFFEE33FEED33FDEC33FCEB57
:1002BF0033FB10D703994004EB99FB0FD8E5E4F912
:1002CF00FA227818EF2FFFEE33FEED33FDEC33FCFF
:1002DF00C933C910D7059BE99A4007EC9BFCE99AF3
:1002EF00F90FD8E0E4C9FAE4CCFB2275F010EF2F38
:1002FF00FFEE33FEED33FDCC33CCC833C810D70738
:10030F009BEC9AE899400AED9BFDEC9AFCE899F872
:0E031F000FD5F0DAE4CDFBE4CCFAE4C8F92205
:10032D00E8600FECC313FCED13FDEE13FEEF13FFAE
:03033D00D8F122D2
:0C034000ECF208EDF208EEF208EFF222F9
:10034C00D083D082E493F208740193F20874029380
:09035C00F208740393F2740473B7
:10036500BC000BBE0029EF8DF084FFADF022E4CC7C
:10037500F875F008EF2FFFEE33FEEC33FCEE9DEC45
:10038500984005FCEE9DFE0FD5F0E9E4CEFD22ED8B
:10039500F8F5F0EE8420D21CFEADF075F008EF2FD5
:1003A500FFED33FD4007985006D5F0F222C398FDC6
:0503B5000FD5F0EA2263
:00000001FF
